{
  "contractName": "MyContract",
  "abi": [
    {
      "inputs": [],
      "name": "Arrival",
      "outputs": [
        {
          "internalType": "uint256",
          "name": "",
          "type": "uint256"
        }
      ],
      "stateMutability": "view",
      "type": "function",
      "constant": true
    },
    {
      "inputs": [],
      "name": "Receiver",
      "outputs": [
        {
          "internalType": "string",
          "name": "",
          "type": "string"
        }
      ],
      "stateMutability": "view",
      "type": "function",
      "constant": true
    },
    {
      "inputs": [],
      "name": "temp",
      "outputs": [
        {
          "internalType": "uint256",
          "name": "",
          "type": "uint256"
        }
      ],
      "stateMutability": "view",
      "type": "function",
      "constant": true
    },
    {
      "inputs": [],
      "name": "getFlower",
      "outputs": [
        {
          "internalType": "string",
          "name": "",
          "type": "string"
        },
        {
          "internalType": "string",
          "name": "",
          "type": "string"
        },
        {
          "internalType": "uint256",
          "name": "",
          "type": "uint256"
        },
        {
          "internalType": "uint256",
          "name": "",
          "type": "uint256"
        }
      ],
      "stateMutability": "view",
      "type": "function",
      "constant": true
    },
    {
      "inputs": [
        {
          "internalType": "string",
          "name": "_name",
          "type": "string"
        },
        {
          "internalType": "string",
          "name": "_Rec",
          "type": "string"
        },
        {
          "internalType": "uint256",
          "name": "_temp",
          "type": "uint256"
        },
        {
          "internalType": "uint256",
          "name": "_arrivalDate",
          "type": "uint256"
        }
      ],
      "name": "changeFlower",
      "outputs": [],
      "stateMutability": "nonpayable",
      "type": "function"
    }
  ],
  "bytecode": "0x60806040526040518060400160405280600681526020017f4d6f62696c650000000000000000000000000000000000000000000000000000815250600090816200004a919062000328565b506040518060400160405280600781526020017f46726f6d206d65000000000000000000000000000000000000000000000000008152506001908162000091919062000328565b506002805542600355348015620000a757600080fd5b506200040f565b600081519050919050565b7f4e487b7100000000000000000000000000000000000000000000000000000000600052604160045260246000fd5b7f4e487b7100000000000000000000000000000000000000000000000000000000600052602260045260246000fd5b600060028204905060018216806200013057607f821691505b602082108103620001465762000145620000e8565b5b50919050565b60008190508160005260206000209050919050565b60006020601f8301049050919050565b600082821b905092915050565b600060088302620001b07fffffffffffffffffffffffffffffffffffffffffffffffffffffffffffffffff8262000171565b620001bc868362000171565b95508019841693508086168417925050509392505050565b6000819050919050565b6000819050919050565b60006200020962000203620001fd84620001d4565b620001de565b620001d4565b9050919050565b6000819050919050565b6200022583620001e8565b6200023d620002348262000210565b8484546200017e565b825550505050565b600090565b6200025462000245565b620002618184846200021a565b505050565b5b8181101562000289576200027d6000826200024a565b60018101905062000267565b5050565b601f821115620002d857620002a2816200014c565b620002ad8462000161565b81016020851015620002bd578190505b620002d5620002cc8562000161565b83018262000266565b50505b505050565b600082821c905092915050565b6000620002fd60001984600802620002dd565b1980831691505092915050565b6000620003188383620002ea565b9150826002028217905092915050565b6200033382620000ae565b67ffffffffffffffff8111156200034f576200034e620000b9565b5b6200035b825462000117565b620003688282856200028d565b600060209050601f831160018114620003a057600084156200038b578287015190505b6200039785826200030a565b86555062000407565b601f198416620003b0866200014c565b60005b82811015620003da57848901518255600182019150602085019450602081019050620003b3565b86831015620003fa5784890151620003f6601f891682620002ea565b8355505b6001600288020188555050505b505050505050565b610961806200041f6000396000f3fe608060405234801561001057600080fd5b50600436106100575760003560e01c8063673402e51461005c5780636924c1f01461007a5780637312c0651461009b578063b4b03291146100b9578063bba85a64146100d7575b600080fd5b6100646100f3565b6040516100719190610310565b60405180910390f35b6100826100f9565b60405161009294939291906103c4565b60405180910390f35b6100a361022f565b6040516100b09190610417565b60405180910390f35b6100c16102bd565b6040516100ce9190610310565b60405180910390f35b6100f160048036038101906100ec91906105ae565b6102c3565b005b60025481565b606080600080600060016002546003548380546101159061067c565b80601f01602080910402602001604051908101604052809291908181526020018280546101419061067c565b801561018e5780601f106101635761010080835404028352916020019161018e565b820191906000526020600020905b81548152906001019060200180831161017157829003601f168201915b505050505093508280546101a19061067c565b80601f01602080910402602001604051908101604052809291908181526020018280546101cd9061067c565b801561021a5780601f106101ef5761010080835404028352916020019161021a565b820191906000526020600020905b8154815290600101906020018083116101fd57829003601f168201915b50505050509250935093509350935090919293565b6001805461023c9061067c565b80601f01602080910402602001604051908101604052809291908181526020018280546102689061067c565b80156102b55780601f1061028a576101008083540402835291602001916102b5565b820191906000526020600020905b81548152906001019060200180831161029857829003601f168201915b505050505081565b60035481565b83600090816102d29190610859565b5082600190816102e29190610859565b50816002819055508060038190555050505050565b6000819050919050565b61030a816102f7565b82525050565b60006020820190506103256000830184610301565b92915050565b600081519050919050565b600082825260208201905092915050565b60005b8381101561036557808201518184015260208101905061034a565b83811115610374576000848401525b50505050565b6000601f19601f8301169050919050565b60006103968261032b565b6103a08185610336565b93506103b0818560208601610347565b6103b98161037a565b840191505092915050565b600060808201905081810360008301526103de818761038b565b905081810360208301526103f2818661038b565b90506104016040830185610301565b61040e6060830184610301565b95945050505050565b60006020820190508181036000830152610431818461038b565b905092915050565b6000604051905090565b600080fd5b600080fd5b600080fd5b600080fd5b7f4e487b7100000000000000000000000000000000000000000000000000000000600052604160045260246000fd5b61048f8261037a565b810181811067ffffffffffffffff821117156104ae576104ad610457565b5b80604052505050565b60006104c1610439565b90506104cd8282610486565b919050565b600067ffffffffffffffff8211156104ed576104ec610457565b5b6104f68261037a565b9050602081019050919050565b82818337600083830152505050565b6000610525610520846104d2565b6104b7565b90508281526020810184848401111561054157610540610452565b5b61054c848285610503565b509392505050565b600082601f8301126105695761056861044d565b5b8135610579848260208601610512565b91505092915050565b61058b816102f7565b811461059657600080fd5b50565b6000813590506105a881610582565b92915050565b600080600080608085870312156105c8576105c7610443565b5b600085013567ffffffffffffffff8111156105e6576105e5610448565b5b6105f287828801610554565b945050602085013567ffffffffffffffff81111561061357610612610448565b5b61061f87828801610554565b935050604061063087828801610599565b925050606061064187828801610599565b91505092959194509250565b7f4e487b7100000000000000000000000000000000000000000000000000000000600052602260045260246000fd5b6000600282049050600182168061069457607f821691505b6020821081036106a7576106a661064d565b5b50919050565b60008190508160005260206000209050919050565b60006020601f8301049050919050565b600082821b905092915050565b60006008830261070f7fffffffffffffffffffffffffffffffffffffffffffffffffffffffffffffffff826106d2565b61071986836106d2565b95508019841693508086168417925050509392505050565b6000819050919050565b600061075661075161074c846102f7565b610731565b6102f7565b9050919050565b6000819050919050565b6107708361073b565b61078461077c8261075d565b8484546106df565b825550505050565b600090565b61079961078c565b6107a4818484610767565b505050565b5b818110156107c8576107bd600082610791565b6001810190506107aa565b5050565b601f82111561080d576107de816106ad565b6107e7846106c2565b810160208510156107f6578190505b61080a610802856106c2565b8301826107a9565b50505b505050565b600082821c905092915050565b600061083060001984600802610812565b1980831691505092915050565b6000610849838361081f565b9150826002028217905092915050565b6108628261032b565b67ffffffffffffffff81111561087b5761087a610457565b5b610885825461067c565b6108908282856107cc565b600060209050601f8311600181146108c357600084156108b1578287015190505b6108bb858261083d565b865550610923565b601f1984166108d1866106ad565b60005b828110156108f9578489015182556001820191506020850194506020810190506108d4565b868310156109165784890151610912601f89168261081f565b8355505b6001600288020188555050505b50505050505056fea26469706673582212207fdc29d043fbd29511efd789ff112068c02adc3a6f94483a34d64d5426fe26b364736f6c634300080f0033",
  "immutableReferences": {},
  "source": "// SPDX-License-Identifier: MIT\npragma solidity >=0.4.22 <0.9.0;\n\n\ncontract MyContract {\n    \n    string internal Name = \"Mobile\";\n    string public Receiver = \"From me\";\n    uint public temp = 2;\n    uint256 public Arrival = block.timestamp;\n\n    function getFlower() external view returns(string memory, string memory, uint, uint256) {\n        return (Name,Receiver,temp, Arrival);\n        \n\n    }\n\n    function changeFlower(string memory _name, string memory _Rec, uint _temp, uint256 _arrivalDate) external {\n        Name = _name;\n        Receiver = _Rec;\n        temp = _temp;\n        Arrival = _arrivalDate;\n\n    }\n}",
  "sourcePath": "/home/awdiini/Projects/Dapps/mycontract/contracts/MyContract.sol",
  "compiler": {
    "name": "solc",
    "version": "0.8.15+commit.e14f2714.Emscripten.clang"
  },
  "schemaVersion": "3.4.7",
  "updatedAt": "2022-07-05T20:52:07.049Z",
  "networkType": "ethereum",
  "devdoc": {
    "kind": "dev",
    "methods": {},
    "version": 1
  },
  "userdoc": {
    "kind": "user",
    "methods": {},
    "version": 1
  }
}