{
  "contractName": "MyContract",
  "abi": [
    {
      "inputs": [],
      "name": "Receiver",
      "outputs": [
        {
          "internalType": "string",
          "name": "",
          "type": "string"
        }
      ],
      "stateMutability": "view",
      "type": "function",
      "constant": true
    },
    {
      "inputs": [],
      "name": "temp",
      "outputs": [
        {
          "internalType": "uint256",
          "name": "",
          "type": "uint256"
        }
      ],
      "stateMutability": "view",
      "type": "function",
      "constant": true
    },
    {
      "inputs": [],
      "name": "getFlower",
      "outputs": [
        {
          "internalType": "string",
          "name": "",
          "type": "string"
        },
        {
          "internalType": "string",
          "name": "",
          "type": "string"
        },
        {
          "internalType": "uint256",
          "name": "",
          "type": "uint256"
        }
      ],
      "stateMutability": "view",
      "type": "function",
      "constant": true
    },
    {
      "inputs": [
        {
          "internalType": "string",
          "name": "_name",
          "type": "string"
        },
        {
          "internalType": "string",
          "name": "_Rec",
          "type": "string"
        },
        {
          "internalType": "uint256",
          "name": "_t",
          "type": "uint256"
        }
      ],
      "name": "changeFlower",
      "outputs": [],
      "stateMutability": "nonpayable",
      "type": "function"
    }
  ],
  "bytecode": "0x60806040526040518060400160405280600681526020017f4d6f62696c650000000000000000000000000000000000000000000000000000815250600090816200004a919062000324565b506040518060400160405280600781526020017f46726f6d206d65000000000000000000000000000000000000000000000000008152506001908162000091919062000324565b5060028055348015620000a357600080fd5b506200040b565b600081519050919050565b7f4e487b7100000000000000000000000000000000000000000000000000000000600052604160045260246000fd5b7f4e487b7100000000000000000000000000000000000000000000000000000000600052602260045260246000fd5b600060028204905060018216806200012c57607f821691505b602082108103620001425762000141620000e4565b5b50919050565b60008190508160005260206000209050919050565b60006020601f8301049050919050565b600082821b905092915050565b600060088302620001ac7fffffffffffffffffffffffffffffffffffffffffffffffffffffffffffffffff826200016d565b620001b886836200016d565b95508019841693508086168417925050509392505050565b6000819050919050565b6000819050919050565b600062000205620001ff620001f984620001d0565b620001da565b620001d0565b9050919050565b6000819050919050565b6200022183620001e4565b6200023962000230826200020c565b8484546200017a565b825550505050565b600090565b6200025062000241565b6200025d81848462000216565b505050565b5b8181101562000285576200027960008262000246565b60018101905062000263565b5050565b601f821115620002d4576200029e8162000148565b620002a9846200015d565b81016020851015620002b9578190505b620002d1620002c8856200015d565b83018262000262565b50505b505050565b600082821c905092915050565b6000620002f960001984600802620002d9565b1980831691505092915050565b6000620003148383620002e6565b9150826002028217905092915050565b6200032f82620000aa565b67ffffffffffffffff8111156200034b576200034a620000b5565b5b62000357825462000113565b6200036482828562000289565b600060209050601f8311600181146200039c576000841562000387578287015190505b62000393858262000306565b86555062000403565b601f198416620003ac8662000148565b60005b82811015620003d657848901518255600182019150602085019450602081019050620003af565b86831015620003f65784890151620003f2601f891682620002e6565b8355505b6001600288020188555050505b505050505050565b6108ff806200041b6000396000f3fe608060405234801561001057600080fd5b506004361061004c5760003560e01c80633de66dad14610051578063673402e51461006d5780636924c1f01461008b5780637312c065146100ab575b600080fd5b61006b60048036038101906100669190610447565b6100c9565b005b6100756100f5565b60405161008291906104e1565b60405180910390f35b6100936100fb565b6040516100a293929190610584565b60405180910390f35b6100b3610229565b6040516100c091906105c9565b60405180910390f35b82600090816100d891906107f7565b5081600190816100e891906107f7565b5080600281905550505050565b60025481565b60608060008060016002548280546101129061061a565b80601f016020809104026020016040519081016040528092919081815260200182805461013e9061061a565b801561018b5780601f106101605761010080835404028352916020019161018b565b820191906000526020600020905b81548152906001019060200180831161016e57829003601f168201915b5050505050925081805461019e9061061a565b80601f01602080910402602001604051908101604052809291908181526020018280546101ca9061061a565b80156102175780601f106101ec57610100808354040283529160200191610217565b820191906000526020600020905b8154815290600101906020018083116101fa57829003601f168201915b50505050509150925092509250909192565b600180546102369061061a565b80601f01602080910402602001604051908101604052809291908181526020018280546102629061061a565b80156102af5780601f10610284576101008083540402835291602001916102af565b820191906000526020600020905b81548152906001019060200180831161029257829003601f168201915b505050505081565b6000604051905090565b600080fd5b600080fd5b600080fd5b600080fd5b6000601f19601f8301169050919050565b7f4e487b7100000000000000000000000000000000000000000000000000000000600052604160045260246000fd5b61031e826102d5565b810181811067ffffffffffffffff8211171561033d5761033c6102e6565b5b80604052505050565b60006103506102b7565b905061035c8282610315565b919050565b600067ffffffffffffffff82111561037c5761037b6102e6565b5b610385826102d5565b9050602081019050919050565b82818337600083830152505050565b60006103b46103af84610361565b610346565b9050828152602081018484840111156103d0576103cf6102d0565b5b6103db848285610392565b509392505050565b600082601f8301126103f8576103f76102cb565b5b81356104088482602086016103a1565b91505092915050565b6000819050919050565b61042481610411565b811461042f57600080fd5b50565b6000813590506104418161041b565b92915050565b6000806000606084860312156104605761045f6102c1565b5b600084013567ffffffffffffffff81111561047e5761047d6102c6565b5b61048a868287016103e3565b935050602084013567ffffffffffffffff8111156104ab576104aa6102c6565b5b6104b7868287016103e3565b92505060406104c886828701610432565b9150509250925092565b6104db81610411565b82525050565b60006020820190506104f660008301846104d2565b92915050565b600081519050919050565b600082825260208201905092915050565b60005b8381101561053657808201518184015260208101905061051b565b83811115610545576000848401525b50505050565b6000610556826104fc565b6105608185610507565b9350610570818560208601610518565b610579816102d5565b840191505092915050565b6000606082019050818103600083015261059e818661054b565b905081810360208301526105b2818561054b565b90506105c160408301846104d2565b949350505050565b600060208201905081810360008301526105e3818461054b565b905092915050565b7f4e487b7100000000000000000000000000000000000000000000000000000000600052602260045260246000fd5b6000600282049050600182168061063257607f821691505b602082108103610645576106446105eb565b5b50919050565b60008190508160005260206000209050919050565b60006020601f8301049050919050565b600082821b905092915050565b6000600883026106ad7fffffffffffffffffffffffffffffffffffffffffffffffffffffffffffffffff82610670565b6106b78683610670565b95508019841693508086168417925050509392505050565b6000819050919050565b60006106f46106ef6106ea84610411565b6106cf565b610411565b9050919050565b6000819050919050565b61070e836106d9565b61072261071a826106fb565b84845461067d565b825550505050565b600090565b61073761072a565b610742818484610705565b505050565b5b818110156107665761075b60008261072f565b600181019050610748565b5050565b601f8211156107ab5761077c8161064b565b61078584610660565b81016020851015610794578190505b6107a86107a085610660565b830182610747565b50505b505050565b600082821c905092915050565b60006107ce600019846008026107b0565b1980831691505092915050565b60006107e783836107bd565b9150826002028217905092915050565b610800826104fc565b67ffffffffffffffff811115610819576108186102e6565b5b610823825461061a565b61082e82828561076a565b600060209050601f831160018114610861576000841561084f578287015190505b61085985826107db565b8655506108c1565b601f19841661086f8661064b565b60005b8281101561089757848901518255600182019150602085019450602081019050610872565b868310156108b457848901516108b0601f8916826107bd565b8355505b6001600288020188555050505b50505050505056fea2646970667358221220f7bdcc9d5a36cc90177cd2c4b58629f491a469fcb8b5bee4f524afd0b6d5b54e64736f6c634300080f0033",
  "immutableReferences": {},
  "source": "// SPDX-License-Identifier: MIT\npragma solidity >=0.4.22 <0.9.0;\n\n\ncontract MyContract {\n    \n    string internal Name = \"Mobile\";\n    string public Receiver = \"From me\";\n    uint public temp = 2;\n\n    function getFlower() external view returns(string memory, string memory, uint) {\n        return (Name,Receiver,temp);\n        \n\n    }\n\n    function changeFlower(string memory _name, string memory _Rec, uint _t) external {\n        Name = _name;\n        Receiver = _Rec;\n        temp = _t;\n\n    }\n}",
  "sourcePath": "/home/awdiini/Projects/Dapps/mycontract/contracts/MyContract.sol",
  "compiler": {
    "name": "solc",
    "version": "0.8.15+commit.e14f2714.Emscripten.clang"
  },
  "schemaVersion": "3.4.7",
  "updatedAt": "2022-07-05T14:27:05.194Z",
  "networkType": "ethereum",
  "devdoc": {
    "kind": "dev",
    "methods": {},
    "version": 1
  },
  "userdoc": {
    "kind": "user",
    "methods": {},
    "version": 1
  }
}