{
  "contractName": "PackageData",
  "abi": [
    {
      "inputs": [
        {
          "internalType": "uint256",
          "name": "",
          "type": "uint256"
        }
      ],
      "name": "contacts",
      "outputs": [
        {
          "internalType": "uint256",
          "name": "id",
          "type": "uint256"
        },
        {
          "internalType": "string",
          "name": "name",
          "type": "string"
        },
        {
          "internalType": "string",
          "name": "phone",
          "type": "string"
        }
      ],
      "stateMutability": "view",
      "type": "function",
      "constant": true
    },
    {
      "inputs": [],
      "name": "count",
      "outputs": [
        {
          "internalType": "uint256",
          "name": "",
          "type": "uint256"
        }
      ],
      "stateMutability": "view",
      "type": "function",
      "constant": true
    },
    {
      "inputs": [
        {
          "internalType": "string",
          "name": "_name",
          "type": "string"
        },
        {
          "internalType": "string",
          "name": "_phone",
          "type": "string"
        }
      ],
      "name": "createContact",
      "outputs": [],
      "stateMutability": "nonpayable",
      "type": "function"
    }
  ],
  "bytecode": "0x60806040526000805534801561001457600080fd5b5061092e806100246000396000f3fe608060405234801561001057600080fd5b50600436106100415760003560e01c806306661abd146100465780633dce492014610064578063e0f478cb14610080575b600080fd5b61004e6100b2565b60405161005b9190610290565b60405180910390f35b61007e60048036038101906100799190610405565b6100b8565b005b61009a600480360381019061009591906104a9565b61013d565b6040516100a99392919061055e565b60405180910390f35b60005481565b6000808154809291906100ca906105d2565b91905055506040518060600160405280600054815260200183815260200182815250600160008054815260200190815260200160002060008201518160000155602082015181600101908161011f9190610826565b5060408201518160020190816101359190610826565b509050505050565b600160205280600052604060002060009150905080600001549080600101805461016690610649565b80601f016020809104026020016040519081016040528092919081815260200182805461019290610649565b80156101df5780601f106101b4576101008083540402835291602001916101df565b820191906000526020600020905b8154815290600101906020018083116101c257829003601f168201915b5050505050908060020180546101f490610649565b80601f016020809104026020016040519081016040528092919081815260200182805461022090610649565b801561026d5780601f106102425761010080835404028352916020019161026d565b820191906000526020600020905b81548152906001019060200180831161025057829003601f168201915b5050505050905083565b6000819050919050565b61028a81610277565b82525050565b60006020820190506102a56000830184610281565b92915050565b6000604051905090565b600080fd5b600080fd5b600080fd5b600080fd5b6000601f19601f8301169050919050565b7f4e487b7100000000000000000000000000000000000000000000000000000000600052604160045260246000fd5b610312826102c9565b810181811067ffffffffffffffff82111715610331576103306102da565b5b80604052505050565b60006103446102ab565b90506103508282610309565b919050565b600067ffffffffffffffff8211156103705761036f6102da565b5b610379826102c9565b9050602081019050919050565b82818337600083830152505050565b60006103a86103a384610355565b61033a565b9050828152602081018484840111156103c4576103c36102c4565b5b6103cf848285610386565b509392505050565b600082601f8301126103ec576103eb6102bf565b5b81356103fc848260208601610395565b91505092915050565b6000806040838503121561041c5761041b6102b5565b5b600083013567ffffffffffffffff81111561043a576104396102ba565b5b610446858286016103d7565b925050602083013567ffffffffffffffff811115610467576104666102ba565b5b610473858286016103d7565b9150509250929050565b61048681610277565b811461049157600080fd5b50565b6000813590506104a38161047d565b92915050565b6000602082840312156104bf576104be6102b5565b5b60006104cd84828501610494565b91505092915050565b600081519050919050565b600082825260208201905092915050565b60005b838110156105105780820151818401526020810190506104f5565b8381111561051f576000848401525b50505050565b6000610530826104d6565b61053a81856104e1565b935061054a8185602086016104f2565b610553816102c9565b840191505092915050565b60006060820190506105736000830186610281565b81810360208301526105858185610525565b905081810360408301526105998184610525565b9050949350505050565b7f4e487b7100000000000000000000000000000000000000000000000000000000600052601160045260246000fd5b60006105dd82610277565b91507fffffffffffffffffffffffffffffffffffffffffffffffffffffffffffffffff820361060f5761060e6105a3565b5b600182019050919050565b7f4e487b7100000000000000000000000000000000000000000000000000000000600052602260045260246000fd5b6000600282049050600182168061066157607f821691505b6020821081036106745761067361061a565b5b50919050565b60008190508160005260206000209050919050565b60006020601f8301049050919050565b600082821b905092915050565b6000600883026106dc7fffffffffffffffffffffffffffffffffffffffffffffffffffffffffffffffff8261069f565b6106e6868361069f565b95508019841693508086168417925050509392505050565b6000819050919050565b600061072361071e61071984610277565b6106fe565b610277565b9050919050565b6000819050919050565b61073d83610708565b6107516107498261072a565b8484546106ac565b825550505050565b600090565b610766610759565b610771818484610734565b505050565b5b818110156107955761078a60008261075e565b600181019050610777565b5050565b601f8211156107da576107ab8161067a565b6107b48461068f565b810160208510156107c3578190505b6107d76107cf8561068f565b830182610776565b50505b505050565b600082821c905092915050565b60006107fd600019846008026107df565b1980831691505092915050565b600061081683836107ec565b9150826002028217905092915050565b61082f826104d6565b67ffffffffffffffff811115610848576108476102da565b5b6108528254610649565b61085d828285610799565b600060209050601f831160018114610890576000841561087e578287015190505b610888858261080a565b8655506108f0565b601f19841661089e8661067a565b60005b828110156108c6578489015182556001820191506020850194506020810190506108a1565b868310156108e357848901516108df601f8916826107ec565b8355505b6001600288020188555050505b50505050505056fea2646970667358221220a55eef577dfdda9a8ce7557adb27f9e7428fac81a96bb329aa300dc2780c775c64736f6c634300080f0033",
  "immutableReferences": {},
  "source": "// SPDX-License-Identifier: MIT\npragma solidity >=0.4.22 <0.9.0;\n\n\ncontract PackageData  {\n  uint public count = 0; // state variable\n\n  struct Contact {\n    uint id;\n    string name;\n    string phone;\n  }\n\n//   constructor() public {\n//     createContact('Zafar Saleem', '123123123');\n//   }\n\n  mapping(uint => Contact) public contacts;\n\n  function createContact(string memory _name, string memory _phone) public {\n    count++;\n    contacts[count] = Contact(count, _name, _phone);\n  \n  \n  }\n\n\n}",
  "sourcePath": "/home/awdiini/Projects/Dapps/mycontract/contracts/PackageData.sol",
  "compiler": {
    "name": "solc",
    "version": "0.8.15+commit.e14f2714.Emscripten.clang"
  },
  "schemaVersion": "3.4.7",
  "updatedAt": "2022-07-05T20:52:09.396Z",
  "networkType": "ethereum",
  "devdoc": {
    "kind": "dev",
    "methods": {},
    "version": 1
  },
  "userdoc": {
    "kind": "user",
    "methods": {},
    "version": 1
  }
}